:0300000002077480
:0C077400787FE4F6D8FD75813D0207BBDC
:1006AB00C2B3120A73120AD3120053120AE61202D1
:1006BB00D8D2AF300218120066D2A8E4F537F5365F
:1006CB00F535F534F53BF53AF539F538C20220CD61
:1006DB00667F14120AF820CDDAD2030511E51170EA
:1006EB0002051064644510703CFFFE120AA97F00DE
:1006FB007E02120AA97F007E04120AA97F007E06E1
:10070B00120AA97F007E08120AA97F007E0A120A2C
:10071B00A97F05120A8D120AE6C200E4F522120225
:10072B00D8C2B3C201C3E5119464E51094005083A1
:10073B00D2B3D2010206BEE4F510F5112003030279
:10074B0006BE7F14120AF80513E51370020512D3C7
:10075B0094C8E512940050030206BEC2B3E4F5122E
:09076B00F513C203C2010206BE2F
:100AF800AE071FEE600A7E127DEBDDFEDEFC80F0A5
:010B080022CA
:100A8D00AC07AF041CEF6010C2B37F64120AF8D23A
:090A9D00B37F64120AF880EA221A
:060B2300020C0001C104F8
:100AD300538E7F5389F0E4F58A758CC4C28DD28C12
:030AE300D2A92273
:03000B0002088C5C
:10088C00C0E0C0D0053C30900DD3E53C941474808E
:10089C0094804002C290E52314603C24FB60252424
:1008AC00F86049240C705A20950920940620930373
:1008BC0030924ED3E53C9414748094804043C2959E
:1008CC00C2948039209303309237D3E53C9414744E
:1008DC00809480402C802620940330950FD3E53CE7
:1008EC009414748094804004C295C2942093033075
:1008FC00920FD3E53C9414748094804004C293C24C
:06090C0092D0D0D0E032D1
:10005300438E0475D74875D6FF438E1043AF0422F1
:03006300020B0984
:0D0B0900C0E0050BE50B7002050AD0E032DC
:100A7300D2B2E4F537F536F535F534F53BF53AF50D
:0A0A830039F538C288D2A8C2B822A3
:030003000204CF25
:1004CF00C0E0C0F0C0D075D000C000C002C003C0F3
:0704DF0004C005C006C007C0
:1004E60020B20302065EC3E50D9414E50C94005099
:1004F60003020696850A0E850B0F750A00750B001A
:10050600E50F9414E50E9400500BE50F250BF50B43
:10051600E50E020692AC0CAD0DAE0EAF0F12080042
:10052600AA06AB07C3EB9419EA9400500DE50F94A5
:10053600BCE50E9402403130042EE50964184508E6
:10054600700302061B7508007509007537007536BD
:1005560000753500753400753B00753A0075390035
:10056600753800C20402061BC3EB9402EA940040ED
:1005760040E5099418E50894005017AF37AE36AD3C
:1005860035AC3478011208798F378E368D358C3438
:100596008015AF3BAE3AAD39AC3878011208798F89
:1005A6003B8E3A8D398C380509E509706805088057
:1005B60064AC0EAD0FAE0CAF0D120800C3EF940283
:1005C600EE94004050E5099418E50894005020AFD9
:1005D60037AE36AD35AC347801120879EF2401F523
:1005E60037E43EF536E43DF535E43CF534801EAFA0
:1005F6003BAE3AAD39AC387801120879EF2401F5F3
:100606003BE43EF53AE43DF539E43CF5380509E5C9
:100616000970020508750E00750F00750C00750D42
:1006260000300111C3E5099430E50894004061C229
:10063600A8D202801BC3E5099418E508940040502F
:1006460085373B85363A853539853438D202C2A896
:100656007508007509008038850A0C850B0D750A2A
:1006660000750B00D3E50D9496E50C9400400A75D1
:100676000C00750D00D2048017C3E50D9414E50C2B
:100686009400500CE50D250BF50BE50C350AF50A23
:10069600D007D006D005D004D003D002D000D0D0E9
:0506A600D0F0D0E032AD
:100AE600E4F5917592FF75B10475B2FCF59053B0BB
:020AF6000F22CD
:1002D800E4F523F53DF527F526F525F524F52BF569
:1002E8002AF529F528F52FF52EF52DF52CF533F5FA
:1002F80032F531F530FF7E08120ABD8F237F007E6C
:100308000A120ABD8F3D7F037E00120ABDE5274F02
:10031800F527E526F526E525F525E524F524AF2777
:10032800AE26AD25FC78081208798F278E268D25F4
:100338008C247F027E00120ABDE5274FF527E526AB
:10034800F526E525F525E524F524AF27AE26AD25C8
:10035800FC78081208798F278E268D258C247F013A
:100368007E00120ABDE5274FF527E526F526E52587
:10037800F525E524F5247F037E02120ABDE52B4FFF
:10038800F52BE52AF52AE529F529E528F528AF2BE7
:10039800AE2AAD29FC78081208798F2B8E2A8D2970
:1003A8008C287402FFFE120ABDE52B4FF52BE52AB7
:1003B800F52AE529F529E528F528AF2BAE2AAD2938
:1003C800FC78081208798F2B8E2A8D298C287F01BA
:1003D8007E02120ABDE52B4FF52BE52AF52AE52901
:1003E800F529E528F5287F037E04120ABDE52F4F7D
:1003F800F52FE52EF52EE52DF52DE52CF52CAF2F57
:10040800AE2EAD2DFC78081208798F2F8E2E8D2DEB
:100418008C2C7F027E04120ABDE52F4FF52FE52EA6
:10042800F52EE52DF52DE52CF52CAF2FAE2EAD2DA7
:10043800FC78081208798F2F8E2E8D2D8C2C7F0139
:100448007E04120ABDE52F4FF52FE52EF52EE52D7A
:10045800F52DE52CF52C7F037E06120ABDE5334FFA
:10046800F533E532F532E531F531E530F530AF33C6
:10047800AE32AD31FC78081208798F338E328D3167
:100488008C307F027E06120ABDE5334FF533E53224
:10049800F532E531F531E530F530AF33AE32AD3117
:1004A800FC78081208798F338E328D318C307F01B9
:1004B8007E06120ABDE5334FF533E532F532E531F4
:0704C800F531E530F53022AB
:10006600E4F517F516F515F514AF3BAE3AAD39AC18
:1000760038AB37AA36A935A834C31208556003022F
:1000860002D7E537540FFF8F21E53754F0FFE536E9
:10009600FEE535FDE4FC78041208668F178E168D92
:1000A600158C14300103020148AB27AA26A925A8FE
:1000B60024C31208556045AF17AE16AD15AC14AB88
:1000C6002BAA2AA929A828C3120855602FAF17AE54
:1000D60016AD15AC14AB2FAA2EA92DA82CC3120849
:1000E600556019AF17AE16AD15AC14AB33AA32A9CD
:1000F60031A830C312085560030202D7E521640C0B
:100106007014D200D29112000ED3E52294017480AD
:1001160094804002D2902000030202D7E5231460A7
:100126001B14601224FC601124F86013240A600377
:100136000202D7020A2C0209CA02099202095702D0
:1001460009FEAF21EF64046017EF64026012EF64EA
:1001560001600DEF64066008EF640E60030202D7CB
:100166007F007E08120AA9AD217F007E08120A5D73
:10017600E53D64017051120AA67D027F007E0A12D7
:100186000A5DE4FFFE120AA9120B2AE517FFE4AD89
:10019600077F01FE120A5DAF17AE16AD15AC1478D7
:1001A60008120866E4AD077F02FE120A5DAF17AEBD
:1001B60016AD15AC147810120866EF540FFFE4ADB7
:1001C600077F03FE0202CAE53D6402704D120AA6CD
:1001D6007D037F007E0A120A5D7F007E02120AA955
:1001E600120B2A7E02120A55AF17AE16AD15AC14C5
:1001F6007808120866E4AD077402FFFE120A5DAFC6
:1002060017AE16AD15AC147810120866EF540FFF32
:10021600E4AD077F037E020202CAE53D6403704E29
:10022600FF7E0A120AA9E4FDFF7E0A120A5D7F001C
:100236007E04120AA9120B2A7E04120A55AF17AEC3
:1002460016AD15AC147808120866E4AD077F027E79
:1002560004120A5DAF17AE16AD15AC14781012086D
:1002660066EF540FFFE4AD077F037E0480567F00E0
:100276007E0A120AA97D017F007E0A120A5D7F00AE
:100286007E06120AA9120B2AE517FFE4AD077F01C5
:100296007E06120A5DAF17AE16AD15AC14780812BD
:1002A6000866E4AD077F027E06120A5DAF17AE163A
:1002B600AD15AC147810120866EF540FFFE4AD07C5
:1002C6007F037E06120A5D120B2A1202D8C201C2F1
:0102D600B374
:0102D7002204
:10000E00D3E53C9416748094804036E52114602F1D
:10001E0014601C24FC602024FC601824FE600C2458
:10002E00FE6018240A701AB292801605228012B24F
:10003E0093800EB2B7800AB2948006B2B68002B236
:05004E0095E4F53C22E1
:10091200D3E53C9414748094804036E52114602F12
:1009220014601C24FC602024FC601824FE600C244B
:10093200FE6018240A701AD2928016D2908012D2C7
:1009420093800ED2B7800AD2948006D2B68002D2A9
:0509520095E4F53C22D4
:100A2C00E52114602014601D24FE601924FE60155D
:100A3C0024FC601124FC600D2406700C120AE6C222
:090A4C0000E4F5222212000E2242
:1009CA00E52114602B14601F24FE601924FE601BAD
:1009DA0024FC601524FC601124067017120AE6C272
:1009EA0000E4F52222800980078002800302000EBB
:0409FA0012091222AA
:10099200E52114602D14601F24FE601924FE601CE2
:1009A20024FC601624FC60122406701B120AE6C2A4
:1009B20000E4F5222280000209128004C29580041C
:0809C2008002C29412000E2213
:10095700E52114603014602124FE601924FE601F15
:1009670024FC601924FC60152406701E120AE6C2D6
:1009770000E4F52222C293800AC29280068004C254
:0B0987009580048002C29412000E2232
:1009FE00E52114602514601F24FE601924FE601A80
:100A0E0024FC601624FC601224067011120AE6C241
:0E0A1E0000E4F52222800002091212000E22CE
:060B2A0000007F2BDFFE3E
:010B300022A2
:0D0B1600E4F5C7F5C5F5C675C380F5C4222A
:100ABD0075C78275C5018FC48EC375C65A75C6A517
:060ACD0000AFC2020B168F
:080A5500E517FFE4AD077F0186
:100A5D0075C78275C5028FC48EC38DC275C65A7592
:060A6D00C6A500020B16F5
:030AA600FF7E0AC6
:100AA90075C78275C5038FC48EC375C65A75C6A529
:040AB90000020B1616
:100780000206ABE493A3F8E493A34003F68001F2DE
:1007900008DFF48029E493A3F85407240CC8C3337A
:1007A000C4540F4420C8834004F456800146F6DF49
:1007B000E4800B0102040810204080900B23E47EAB
:1007C000019360BCA3FF543F30E509541FFEE4933E
:1007D000A360010ECF54C025E060A840B8E493A305
:1007E000FAE493A3F8E493A3C8C582C8CAC583CA30
:1007F000F0A3C8C582C8CAC583CADFE9DEE780BEE8
:010B290000CB
:10080000BC000BBE0029EF8DF084FFADF022E4CCDC
:10081000F875F008EF2FFFEE33FEEC33FCEE9DECA5
:10082000984005FCEE9DFE0FD5F0E9E4CEFD22EDEB
:10083000F8F5F0EE8420D21CFEADF075F008EF2F35
:10084000FFED33FD4007985006D5F0F222C398FD26
:050850000FD5F0EA22C3
:10085500EB9FF5F0EA9E42F0E99D42F0E89C45F0F9
:010865002270
:10086600E8600FECC313FCED13FDEE13FEEF13FF70
:03087600D8F12294
:10087900E8600FEFC333FFEE33FEED33FDEC33FCDD
:03088900D8F12281
:00000001FF
